:100000000C943E000C9453000C9453000C94530039
:100010000C9453000C9453000C9453000C94530014
:100020000C9453000C9453000C9453000C94530004
:100030000C9453000C9453000C9453000C945300F4
:100040000C9453000C9453000C9453000C945300E4
:100050000C9453000C9453000C9453000C945300D4
:100060000C9453000C9453000C9453000C945300C4
:100070000C9453000C9453000C94530011241FBE95
:10008000CFEFD8E0DEBFCDBF11E0A0E0B1E0EAE500
:10009000F3E002C005900D92A430B107D9F70E9499
:1000A000C2000C94AB010C94000081E087BD88BDB8
:1000B0008093B3008093B40008959FEF97BD81E0D3
:1000C00088BD9093B3008093B400089591E097BDEC
:1000D0008FEF88BD9093B3008093B400089581E0C2
:1000E00087BD9FEF98BD9093B3008093B4000895AF
:1000F0008FEF87BD91E098BD9093B3008093B400DB
:1001000008958AB1806C8AB984B1886184B984B554
:10011000836A84BD85B5816085BD10926E0081E0E3
:1001200087BD88BD9091B000936A9093B000909184
:10013000B10095609093B100109270008093B3006D
:100140008093B400C2E0D0E0069916C00E9455002A
:100150000E943801BE010E94C400892B81F40E94D4
:100160006F002FEF8FE097E2215080409040E1F741
:1001700000C000000E9455000E945D00E5CF0E9473
:100180007800EFCF0E94810097FB072E16F40094B1
:1001900007D077FD09D00E94D80007FC05D03EF4B7
:1001A000909581959F4F0895709561957F4F089523
:1001B000AA1BBB1B51E107C0AA1FBB1FA617B7078D
:1001C00010F0A61BB70B881F991F5A95A9F78095A9
:1001D0009095BC01CD0108958F929F92AF92BF92EE
:1001E000CF92DF92EF92FF92CF93DF93EC01688181
:1001F00079818A819B81611571058105910521F4C1
:1002000064E279ED8BE597E02DE133EF41E050E0DA
:100210000E94480149015A019B01AC01A7EAB1E4DF
:100220000E9467016B017C01ACEEB4EFA501940163
:100230000E947501DC01CB018C0D9D1DAE1DBF1D03
:10024000B7FF03C00197A109B04888839983AA83A7
:10025000BB839F77DF91CF91FF90EF90DF90CF909E
:10026000BF90AF909F908F9008950E94EC000895EA
:1002700080E091E00E94EC000895A0E0B0E080935F
:10028000000190930101A0930201B093030108952E
:10029000052E97FB1EF400940E945F0157FD07D0C6
:1002A0000E947A0107FC03D04EF40C945F01509534
:1002B0004095309521953F4F4F4F5F4F0895909552
:1002C0008095709561957F4F8F4F9F4F08950E9445
:1002D0009C01A59F900DB49F900DA49F800D911D32
:1002E00011240895B7FF0C9467010E946701821BD7
:1002F000930B0895A1E21A2EAA1BBB1BFD010DC092
:10030000AA1FBB1FEE1FFF1FA217B307E407F507C5
:1003100020F0A21BB30BE40BF50B661F771F881FA1
:10032000991F1A9469F760957095809590959B0137
:10033000AC01BD01CF010895A29FB001B39FC001E0
:10034000A39F700D811D1124911DB29F700D811D01
:0A0350001124911D0895F894FFCFC9
:04035A00010000009E
:00000001FF
