:107800007BC00000AEC0000092C0000090C000002D
:107810008EC000008CC000008AC0000088C000003C
:1078200086C0000084C0000082C0000080C000004C
:107830007EC000007CC000007AC0000078C000005C
:1078400076C0000074C0000072C0000070C000006C
:107850006EC000006CC000006AC0000068C000007C
:1078600066C0000064C0000062C0000060C000008C
:107870005EC000005CC000005AC000000600FF09A6
:1078800001A101150026FF00750885019506090074
:10789000B20201850295830900B20201C0090222E9
:1078A000000101008032090400000103000000090A
:1078B0002101010001222100070581030800C812EF
:1078C00001100100000008C016DF050001010200E0
:1078D00001100348004900440042006F006F00742B
:1078E0000012036F0062006400650076002E0061E4
:1078F000007400040309040011241FBECFEFD8E078
:10790000DEBFCDBF11E0A0E0B1E0EEEDFEE702C0CA
:1079100005900D92AA30B107D9F721E0AAE0B1E0B5
:1079200001C01D92A933B207E1F733D1D6C268CFA7
:10793000A82FB92F80E090E041E050EA609530E058
:1079400009C02D9182279795879510F08427952758
:10795000305EC8F36F5FA8F30895EADF8D939D93BF
:107960000895CF93CFB7CF93DF93C3954B9BE9F7A0
:107970004B9B0BC04B9B09C04B9B07C04B9B05C04F
:107980004B9B03C04B9B01C08BC06F93C0911C01EC
:10799000DD27CD5DDE4F2F9365E54B9B03C02F9117
:1079A0006F91E6CF0F931F934F9320E040E15F93D9
:1079B00009B10C7003FB27F93F9350E03BE039C05D
:1079C0001C7040642F77012F5F5F1EC0406819B1A3
:1079D0001C702F7752501FC0406409B12F770C7074
:1079E000D1F15F5F00C023C0406219B12F771C70D6
:1079F00091F15F5F00C025C00C701027515012F448
:107A00005D5F0000115027952C3F19B1C8F61C701E
:107A10000127015027952C3FC8F64227499309B109
:107A20000C7010274F73115027952C3FA8F64695E0
:107A3000469519B11C7079F00127015027952C3F0C
:107A400098F66B5A60F3315009B1B0F600C011E0FE
:107A50001CBB002719C03B503195C31BD04011E01F
:107A60001CBB0881033C09F10B34F9F020911A0189
:107A70001981110F1213EDCF4A81441F093651F1BC
:107A80000D3211F0013E29F7009321013F915F91E2
:107A90004F911F910F912F916F91CCB3C0FD65CF86
:107AA000DF91CF91CFBFCF91189520912101222353
:107AB00069F310911F01112349F534304AF13093D5
:107AC0001F0120931B0110911C013BE0311B3093DF
:107AD0001C011EC000911F010130C4F40AE54F7063
:107AE000A9F43091080134FD14C000930801CFE0DF
:107AF000D1E013C0052710E000C000000BB91AC088
:107B0000052710E0221F1DC010E021C04AE502C079
:107B100032ED432FC4E1D0E032E01AB11C605B9A31
:107B20000BB11AB95CE020E865E320FF05270BB92B
:107B3000279517951C3FF0F66695B8F7B1F720FF2B
:107B400005270BB9279517951C3FD0F62795179554
:107B500017FF052700001C3F0BB9B0F629913A9595
:107B600019F7037F10912001110FC651D0400BB9B6
:107B700011F010931A0111E01CBB08601AB1137FB9
:107B8000402F437F54E05A95F1F70BB91AB94BB91E
:107B90007DCF2A9A8FE19EE40197F1F700C00000A3
:107BA0001A9B0EC0F89481E180935700E8951DBAA6
:107BB0001092690081E085BF15BEE0E0F0E0099514
:107BC00081E085BF82E085BF8091690083608093FA
:107BD0006900E89A539A80E0A895EFE9FFE03197B1
:107BE000F1F700C000008150B9F7539878941A99C2
:107BF000D9CFD0E010E0A89540911F013DEF340FA0
:107C000037FD18C180911C01ACE0B0E0A81BB109A0
:107C1000AD5DBE4F80911B018D3209F0BCC0383084
:107C200009F006C183EC80930F018AE58093080177
:107C300010920E018C91282F207611969C9111970D
:107C40002223E1F0993079F412969C9112979230A8
:107C500031F410920B0187FD8AC08FEF8AC081E05A
:107C600080930A018AC0913009F087C080E091E0DA
:107C700090931E0180931D0187E080C012968C9125
:107C8000129710921801911106C01092190128E163
:107C900031E082E067C0953019F48093200154C030
:107CA000963009F04BC013969C911397913019F4BC
:107CB0008FEB98E71AC0923041F48DE998E79093E2
:107CC0001E0180931D0182E235C09330F1F48111D1
:107CD00008C083EF98E790931E0180931D0184E014
:107CE00029C0813041F481EE98E790931E01809382
:107CF0001D0182E11FC08230E1F481ED98E790938D
:107D00001E0180931D0180E115C0913241F48FEA7C
:107D100098E790931E0180931D0189E00BC0923279
:107D200041F48CE798E790931E0180931D0181E256
:107D300001C080E090E490930E0120C0983079F06B
:107D4000993031F48093220128E131E080E00AC0CB
:107D500081E09A3009F080E028E131E003C022E2BE
:107D600031E081E030931E0120931D0107C016967B
:107D70008C9190E890930E010BC080E017969C9137
:107D80001797911105C016969C91981708F4892FA2
:107D9000809307014DC080910E0187FF49C08091FB
:107DA0000C0190910D0120910B01211109C0119638
:107DB0008C91119712969C911297149639EF340F6B
:107DC000230F20930B012078482F4F7799F0F894D8
:107DD0006D917D9141E0FC010B0140935700E895C6
:107DE00011247894AC014E5F5F4FCA01642F6F7706
:107DF00061F014C0F89443E0FC0140935700E8950B
:107E0000789407B600FCFDCFE2CFF89465E060936C
:107E10005700E895789407B600FCFDCF325009F082
:107E2000D3CF50930D0140930C0121111092070103
:107E300010921F018091080184FF39C080910701D1
:107E40008F3FA9F1C82F893008F0C8E08C1B8093C0
:107E5000070190910F0188E8892780930F01CC23B7
:107E6000D1F0E0911D01F0911E0180910E01A0E181
:107E7000B1E086FF07C08C2F94919D93319681507D
:107E8000D9F705C08C2F91919D938150E1F7F09324
:107E90001E01E0931D016C2F80E191E05EDDCC5F5F
:107EA000CC3019F08FEF80930701C093080184E173
:107EB00099B19C7031F48150D9F710922001109241
:107EC0001A0180910A01882309F495CE115009F016
:0E7ED00092CED15009F08FCE65CEF894FFCF40
:0A7EDE0001800000800000FF5A0040
:040000030000780081
:00000001FF
